00000000000000000NULL00000752558NULLGLENDA YUBIRY MALDONADO HERRERA         0012567671
00000000000000000NULL00000752558NULLLUGBEL EVELYN MONASTERIOS TORREVILLA    0016596837
00000000000000000NULL00000752558NULLANGELA MARIA ALBARRAN ACOSTA            0016434922
00000000000000000NULL00000752558NULLKARINA ELENA RAMIREZ                    0012309756
00000000000000000NULL00000752558NULLZILAHI DEL VALLE SALINAS LIENDO         0012572101
00000000000000000NULL00000752558NULLYUDITH JOSEFINA BARRETO SALAS           0007194968
00000000000000000NULL00000752558NULLNEYSIS CARINA GUERRA NAVA               0016686689
00000000000000000NULL00000752558NULLFRANCIS YOLENNY MANAMA MEDINA           0013721823
00000000000000000NULL00000752558NULLREINALDO JOSE VASQUEZ OROPEZA           0016207606
00000000000000000NULL00000752558NULLMARIA CRISTINA GONZALEZ MORENO          0005602563
00000000000000000NULL00000752558NULLORFELIA DEL CARMEN BOLÍVAR BARAT        0003848150
00000000000000000NULL00000752558NULLANTONIO JOSE PIMENTEL                   0006374071
